{
  "contractName": "ScoreStore",
  "abi": [
    {
      "constant": false,
      "inputs": [
        {
          "internalType": "string",
          "name": "name",
          "type": "string"
        },
        {
          "internalType": "int256",
          "name": "score",
          "type": "int256"
        }
      ],
      "name": "AddPersonScore",
      "outputs": [],
      "payable": false,
      "stateMutability": "nonpayable",
      "type": "function"
    },
    {
      "constant": false,
      "inputs": [
        {
          "internalType": "string",
          "name": "name",
          "type": "string"
        }
      ],
      "name": "GetScore",
      "outputs": [
        {
          "internalType": "int256",
          "name": "",
          "type": "int256"
        }
      ],
      "payable": false,
      "stateMutability": "nonpayable",
      "type": "function"
    }
  ],
  "bytecode": "0x608060405234801561001057600080fd5b506102e8806100206000396000f3fe608060405234801561001057600080fd5b50600436106100365760003560e01c8063308d19641461003b578063fdb402b81461010a575b600080fd5b6100f46004803603602081101561005157600080fd5b810190808035906020019064010000000081111561006e57600080fd5b82018360208201111561008057600080fd5b803590602001918460018302840111640100000000831117156100a257600080fd5b91908080601f016020809104026020016040519081016040528093929190818152602001838380828437600081840152601f19601f8201169050808301925050505050505091929192905050506101cf565b6040518082815260200191505060405180910390f35b6101cd6004803603604081101561012057600080fd5b810190808035906020019064010000000081111561013d57600080fd5b82018360208201111561014f57600080fd5b8035906020019184600183028401116401000000008311171561017157600080fd5b91908080601f016020809104026020016040519081016040528093929190818152602001838380828437600081840152601f19601f82011690508083019250505050505050919291929080359060200190929190505050610241565b005b600080826040518082805190602001908083835b6020831061020657805182526020820191506020810190506020830392506101e3565b6001836020036101000a0380198251168184511680821785525050505050509050019150509081526020016040518091039020549050919050565b806000836040518082805190602001908083835b602083106102785780518252602082019150602081019050602083039250610255565b6001836020036101000a038019825116818451168082178552505050505050905001915050908152602001604051809103902081905550505056fea265627a7a72315820fbdf85cbf04f055c3e74f62c9a0fc2e3cf676c1b1c1d3a2c3216098ca4ecad1c64736f6c63430005100032",
  "source": "pragma solidity >=0.4.21 <0.7.0;\r\ncontract ScoreStore {\r\n    mapping (string=> int) PersonScores;\r\n\r\n    function AddPersonScore(string memory name, int score) public {\r\n        PersonScores[name] = score;\r\n    }\r\n\r\n    function GetScore(string memory name) public returns (int) {\r\n        return PersonScores[name];\r\n    }\r\n}",
  "sourcePath": "C:\\Users\\SrInaG\\Documents\\Rupak\\blockChain\\ScoreStore\\contracts\\ScoreStore.sol",
  "compiler": {
    "name": "solc",
    "version": "0.5.16+commit.9c3226ce.Emscripten.clang"
  },
  "schemaVersion": "3.2.0",
  "updatedAt": "2020-06-13T18:17:28.667Z",
  "networkType": "ethereum",
  "devdoc": {
    "methods": {}
  },
  "userdoc": {
    "methods": {}
  }
}